:020000040800F2
:1000000080050020A1010008DF2B0008AB240008B8
:10001000DD2B0008A1060008D9320008000000000E
:10002000000000000000000000000000A12D0008FA
:100030008D0B000800000000E12B0008F12D0008E6
:10004000BB010008BB010008BB010008BB010008A0
:10005000BB010008BB010008BB010008BB01000890
:10006000BB010008BB010008BB010008BB01000880
:10007000BB010008BB010008BB010008BB01000870
:10008000BB010008BB010008BB010008BB01000860
:10009000BB010008BB010008BB010008BB01000850
:1000A000BB010008BB010008BB010008BB01000840
:1000B000E12E00080000000000000000BB01000865
:1000C000BB0100080000000000000000BB010008A8
:1000D00000000000BB010008BB0100080000000098
:1000E0008F0B0008BB0100080000000000000000AA
:1000F0000000000000000000000000000000000000
:10010000000000000000000000000000BB0100082B
:100110000000000000000000BB010008BB01000857
:10012000BB010008BB010008BB010008BB010008BF
:10013000BB010008000000000000000000000000FB
:10014000BB010008BB010008BB010008BB0100089F
:10015000BB010008BB010008BB010008BB0100088F
:10016000BB010008BB010008BB0100080000000043
:10017000BB010008BB0100080000000000000000F7
:10018000BB010008BB010008BB010008DFF80CD070
:1001900000F0D8F900480047B1340008800500207D
:1001A0000648804706480047FEE7FEE7FEE7FEE711
:1001B000FEE7FEE7FEE7FEE7FEE7FEE79D2E00080E
:1001C0008D0100082DE9F05F0546002092469B4610
:1001D00088460646814640241BE02846414647465D
:1001E000224600F00BF953465A46C01A914110D3EB
:1001F00011461846224600F0F2F82D1A67EB010866
:100200004F4622460120002100F0E9F817EB0009D3
:100210004E41201EA4F10104DFDC484631462A4647
:10022000434600F000B830BCBDE8C09FD2B201E048
:1002300000F8012B491EFBD270470022F6E710B5EB
:1002400013460A4604461946FFF7F0FF204610BD44
:100250002DE9F04D81EA030404F0004B21F0004544
:1002600014464FF0000A23F0004150EA050220D066
:1002700054EA01021DD0C5F30A570246C5F3130321
:10028000C1F31300C1F30A5640F4801543F4801300
:10029000A7EB0608101BD64608F2FD3873EB0500E5
:1002A00002D308F1010801E092185B41B8F1000F98
:1002B00003DA00200146BDE8F08D00204FF48011E4
:1002C000064684460EE0171B73EB050705D3121B89
:1002D00063EB050306434CEA010C49084FEA300082
:1002E00092185B4150EA0107EDD152EA030012D0A7
:1002F00082EA040083EA0501084305D0101BAB41E4
:1003000006D20122002306E000224FF0004302E063
:100310006FF0010253101AEB06004CEB085110EB82
:100320000A0041EB0B01BDE8F04D00F0AEB80EB590
:1003300040F2334102910021CDE900110A460B46FB
:1003400000F0B2F803B000BDC1F30A5210B5C1F31A
:10035000130140F2FF3341F480119A4201DA002088
:1003600010BD40F233439A42A2F2334203DC5242C0
:1003700000F044F810BD904010BD01F0004330B4CF
:1003800021F0004150EA010206D00A0DA2F5607288
:10039000C1F31301002A02DC30BC00207047440F77
:1003A00044EAC104C100E01830BC00EBC25000F0C8
:1003B00035B830B50B46014600202022012409E063
:1003C00021FA02F59D4205D303FA02F5491B04FA0E
:1003D00002F52844151EA2F10102F1DC30BD202AED
:1003E00004DB203A00FA02F1002070479140C2F18C
:1003F000200320FA03F3194390407047202A04DBBE
:10040000203A21FA02F00021704721FA02F3D0408D
:10041000C2F1200291400843194670470029A8BF45
:100420007047401C490008BF20F00100704710B41D
:10043000B0FA80FC00FA0CF050EA010404BF10BCD2
:10044000704749B1CCF1200421FA04F411FA0CF1FF
:1004500018BF012121430843A3EB0C01CB1D4FEA38
:1004600000614FEA102042BF002010BC704700EB33
:10047000C35010440029A4BF10BC7047401C490061
:1004800008BF20F0010010BC704710B5141E73F1B6
:10049000000408DA401C41F1000192185B411A4344
:1004A00001D120F0010010BD2DE9F04D92469B4690
:1004B00011B1B1FA81F202E0B0FA80F22032904636
:1004C000FFF78DFF04460F4640EA0A0041EA0B01A0
:1004D00053465A46084313D0114653EA010019D037
:1004E000C8F140025046FFF789FF05460E465046C8
:1004F00059464246FFF773FF084305D0012004E048
:1005000020463946BDE8F08D0020054346EAE076F6
:100510002C4337430A986305E40AA0EB0800002245
:10052000FD0A44EA47540A3002D500200146E9E7B3
:10053000010510196941DDE9084500196941BDE867
:10054000F04DA2E7064C074D06E0E06840F00103DD
:1005500094E8070098471034AC42F6D3FFF71AFE30
:10056000FC3600081C37000870B504460068816836
:1005700011F0010F28D18168144A114215D1816808
:10058000D5432940491C816000F0D2FF064616E0A1
:10059000816811F0010F03D181682940491C8160F5
:1005A00000F0C6FF801B022809D9606D40F01000E2
:1005B0006065A06D40F00100A065012070BD20685D
:1005C0000168C943C907E3D1002070BD3F00008026
:1005D00001F08ABF90ED000AF2EE040A20EE200A34
:1005E000BCEEC00A10EE100A0880704710B50088F3
:1005F0000C4640BAFFF79BFE9FED041B53EC112BFA
:10060000FFF726FEFFF7B9FE206010BD333333330A
:100610003333F33F02220146462001F0E6BF10B516
:100620000121462002F006F82021BDE810404620B6
:1006300002F000B830B587B018216846FFF7FDFD1D
:10064000154814490024C0E9001484600425C460DE
:10065000C0E90445047644760121C16180F8204058
:10066000C0E90914C46280F83040446380F838401F
:1006700000F0B8FC094800900620CDE901047F2075
:100680000594CDE903056946034800F0AFFA07B0C9
:1006900030BD0000000004503C0000200000214359
:1006A000FEE7000010B586B014216846FFF7C5FDCF
:1006B0000E48C16C41F00101C164C06C4FF0904420
:1006C00000F00100059001200090019000200290B0
:1006D000032003906946204600F04EFE0122114699
:1006E000204600F01FFF06B010BD000000100240C1
:1006F000034800214171018001714180817170477F
:10070000360100202DE9F04102F07EF8FFF7CAFF24
:1007100040F6B83000F002FE00264FF09048324616
:100720000121404600F0FEFE642000F0F7FD724D0E
:10073000724C002711E02021B42002F00BF90122B5
:100740006D49B42002F0E1F82978812937D06CA0F6
:1007500002F0C4FD642000F0E1FD20780028EAD119
:100760006FA002F0BBFD642000F0D8FD2321B4206F
:1007700002F0F0F80222691CB42002F0C6F86420EE
:1007800000F0CCFD2421B42002F0E4F80222E91CA0
:10079000B42002F0BAF8642000F0C0FD0021B420BB
:1007A00002F0D8F855490122091DB42002F0ADF835
:1007B000642000F0B3FD2079C0062BD430E0761C15
:1007C0006078F6B2864201D12770C3E732465AA05C
:1007D00002F084FDBEE7F022F321B42002F0B0F96C
:1007E0005A4802F07BFD454A0023921CF421B420B4
:1007F00002F07CF9642000F091FD0021B42002F0A9
:10080000A9F83E490122091DB42002F07EF86420B7
:1008100000F084FD20790006DDD54DA002F05EFDDC
:10082000642000F07BFD0121B42002F093F83349ED
:100830000122C91CB42002F068F8642000F06EFDAB
:10084000E07800F07000E0701BE010220121B4207D
:1008500002F076F9642000F061FD0121B42002F07D
:1008600079F826490122C91CB42002F04EF8E0783C
:1008700000F07000E07041A002F030FD642000F054
:100880004DFDE0781028E0D1642000F047FD002104
:10089000B42002F05FF819490122091DB42002F0CA
:1008A00034F8642000F03AFD0121B42002F052F83F
:1008B00012490122C91CB42002F027F8642000F07C
:1008C0002DFD01221146404600F02CFE642000F070
:1008D00025FDE021B42002F03DF808490122491D20
:1008E000B42002F012F8E37862792179BDE8F04192
:1008F0002BA002F0F3BC00002C0100200A00002015
:1009000069643D25642C696E636F72726563742C33
:10091000636F6E74696E75696E672E2E2E0D0A00F8
:10092000696420636F72726563742C696E6974699F
:100930006E672E2E2E0D0A0069643D25642C636FB0
:100940007272656374202564210D0A00B0360008B8
:1009500043435338313120697320616C726561649F
:100960007920696E206170706C69636174696F6E63
:10097000206D6F6465210D0A0000000074727969B2
:100980006E6720746F20656E746572206D6561738B
:10099000757265206D6F64652E2E2E0D0A000000A5
:1009A0007374617475733D2564206572726F725F34
:1009B00069643D2564206D6561737572654D6F6472
:1009C000653D2564200D0A0010B54FF090440022CB
:1009D0000121204600F0A6FD0A2000F09FFC022124
:1009E000B42001F0B7FF08221D49B42001F08DFFAB
:1009F0000A2000F093FC2021B42001F0ABFF18493D
:100A000001220C31B42001F080FF0A2000F086FCA6
:100A1000E021B42001F09EFF01221249B42001F030
:100A200074FF01221146204600F07CFD0C494878F5
:100A30000A7800EB022201F116000280CA78897858
:100A400002EB01214180A0F10A010A784271054AB6
:100A5000521F5379837100205071087010BD00003F
:100A6000200100200F00002010B586B01421684638
:100A7000FFF7E3FB0D48C16C41F00201C164C06C9B
:100A80000B4C00F00200059008200090012001901E
:100A90000020029003906946204600F06DFC002281
:100AA0000821204600F03EFD06B010BD00100240B7
:100AB0000004004800220821014800F033BD000076
:100AC0000004004801220821014800F02BBD00006D
:100AD000000400482DE9F04186B014216846FFF774
:100AE000ACFB274DE86C40F00100E864E86C00F0D6
:100AF00001000590E86C40F00100E864E86C022712
:100B000000F0010005900420CDE900070024032631
:100B100002940720CDE903604FF0904869464046B3
:100B200000F02AFCB803CDE90007CDE9024669468A
:100B30000496404600F020FCA86D40F40030A86503
:100B4000A86D104900F4003005900F4801604FF483
:100B5000E131C0E901140C21C460C0E904418461A1
:100B6000C4610462446201F0AAFB002211462620FF
:100B700000F042FD262000F031FD06B0BDE8F08116
:100B80000010024000440040A000002070474FF4D5
:100B9000006000F0E5BB000000B587B01421684696
:100BA000FFF74BFB0F48C16C41F00101C164C06C01
:100BB000694600F0010005904FF4006000900A487B
:100BC0000190022002904FF0904000F0D5FB0022EF
:100BD0001146282000F010FD282000F0FFFC07B08F
:100BE00000BD000000100240000011102DE9F84F78
:100BF00000270446009790F85000DFF8B0930D46A8
:100C0000B846012811D0012684F85060206801F010
:100C1000C2FF60B1606D40F0200060655FF00107C9
:100C200084F85080384600F0D7B90220FBE76868A6
:100C30000C23052812D8022807D0032807D004283F
:100C400007D0052807D0062007E06B6006E01220D9
:100C500003E0182001E04FF480706860D5E90021BE
:100C6000206803EA91131844036B01F01F014FF051
:100C70001F0C0CFA01FCC2F3846223EA0C038A40C5
:100C800013430363206801F086FF8246206801F069
:100C90007EFF5AEA00001DD1AA682968206801F089
:100CA00086FF20686969C268C2F3C10252009140A0
:100CB0002A69042A0FD000EB82002B68026EDFF84D
:100CC000F0C203F0F84302EA0C020B431A4342F06D
:100CD0000041016672E0002101F053FF40032068EB
:100CE0004FF0000172D001F04CFF90FAA0F0B0FA82
:100CF00080F1286842036ED090FAA0F0B0FA80F03C
:100D0000814204D100221146206801F05FFF0121D9
:100D1000206801F036FF400320684FF001015DD0EC
:100D200001F02FFF90FAA0F0B0FA80F1286842039A
:100D300059D090FAA0F0B0FA80F0814204D100229C
:100D40000121206801F042FF0221206801F019FF13
:100D5000400320684FF0020148D001F012FF90FAE2
:100D6000A0F0B0FA80F12868420344D090FAA0F0D5
:100D7000B0FA80F0814204D100220221206801F003
:100D800025FF0321206801F0FCFE400320684FF09E
:100D9000030133D001F0F5FE90FAA0F0B0FA80F133
:100DA000286842032FD090FAA0F0B0FA80F0814278
:100DB00004D100220321206801F008FF2068816827
:100DC00011F0010F22D0ACE000E004E001F0D9FE08
:100DD000C0F384618DE7C0F3846091E701F0D1FE38
:100DE000C0F38461A2E7C0F38460A6E701F0C9FE06
:100DF000C0F38461B7E7C0F38460BBE701F0C1FED4
:100E0000C0F38461CCE7C0F38460D0E72A7B296813
:100E100050F8B03FC1F3120C23EA0C0302F0180C97
:100E2000644A22FA0CF20A4013430360E968494518
:100E300077D1286841031CD090FAA0F1B1FA81F172
:100E4000491C01F01F0109294FEA403132D800291D
:100E500012D000BF90FAA0F1B1FA81F101F10101C5
:100E600001F01F0106FA01F609D100BFC0F3846149
:100E700009E0C0F38461E3E7C0F38461EEE790FA30
:100E8000A0F1B1FA81F101F1010101F01F0146EA7F
:100E9000816102D1C0F3846003E090FAA0F0B0FA5F
:100EA00080F000F1010000F01F0000EB400041EA7B
:100EB000005132E000290ED090FAA0F1B1FA81F190
:100EC00001F1010101F01F0106FA01F606D100BF90
:100ED000C0F3846106E0C0F38461F1E790FAA0F109
:100EE000B1FA81F101F1010101F01F0146EA8161CE
:100EF00002D1C0F3846003E090FAA0F0B0FA80F071
:100F000000F1010000F01F002B4A00EB400002EB53
:100F1000005041EA000141F00071AA68206801F028
:100F200046FE26482A6802423FF47AAE2448816889
:100F3000244D254B01F0E071AA421AD10D0218D4BC
:100F400022689A427FF46CAE826841F4000122F07C
:100F5000E0720A4382601D481D490068B0FBF1F051
:100F600000EB4000800000E0401E00900028FBD114
:100F700056E6184DAA4207D1CD0105D422689A42FF
:100F8000F6D141F080710AE06FF00045EA42EFD1FE
:100F90004A02EDD422689A42EAD141F48001826883
:100FA00022F0E0720A4382603AE6000000007F40CF
:100FB00000F0FF03FFFF0700000020FE0000088094
:100FC00000030450000052C7000004503400002009
:100FD000400D0300000084CB18BCBDE8E08F006822
:100FE000006C7047F8B54FF0000504002E460095E0
:100FF00002D0606D10B107E00120F8BD204600F07E
:10100000C7F8A66584F8506020688168C1F3407114
:1010100019B18168564A1140816020688168C1F326
:10102000007179B98168534A114041F08051816063
:10103000514852490068B0FBF1F000E0401E0090BA
:101040000028FBD120688168C1F3007141B9616D4E
:1010500041F010016165A16D41F00101A16501251B
:1010600001F099FD616DC90600D430B1606D40F0AA
:101070001000606501252846F8BD606D20F4807081
:1010800040F0020060652068806810F0010F0BD10D
:101090003B48806810F0010F06D13A4861688268C9
:1010A00022F47C120A438260E168606B627E08432E
:1010B000A16841EA4231084394F8201040EA014017
:1010C000012904D1A18C304A02EB41410843A16AB5
:1010D00029B101F47071E26A014342EA010021681A
:1010E000CA682A4B1A400243CA60206801F053FDC7
:1010F0000646206801F04BFD304315D1207E94F860
:101100003010800340EA41022068C16844F20203C3
:1011100099431143C16094F8380001280CD020682D
:10112000016921F001010161206901282068016B3A
:1011300021F00F0111D013E0D4E90F010843D4E9E5
:1011400011121143084321680A6940F2FC739A4363
:10115000104340F001000861E6E7E269521E1143C6
:101160000163606D20F0020040F00100606582E7DD
:10117000C0FFFF5FC0FFFF7F34000020400D030071
:1011800000000450000304500000FEFF07C0F0FF01
:1011900010B586B0044614216846FFF74EF8104992
:1011A000206888421AD10F48C16C41F40051C164D3
:1011B000C16C01F400510591C16C41F00201C164A0
:1011C000C06C694600F002000590022000900B20E0
:1011D000019000200290044800F0CEF806B010BD47
:1011E0000000045000100240000400482DE9F041C6
:1011F000044640690D4608280AD02068C068C00728
:1012000008D0606D40F0200060650120BDE8F081ED
:10121000082600E0042600F08BF9074607E0681C6A
:1012200005D000F085F9C01BA8420FD875B1206821
:1012300000683042F3D0606D40F400706065206853
:1012400001F0ADFCD0B1607E48B117E0606D40F0B8
:1012500004006065002084F850000320D6E7206871
:10126000006800070AD5606D20F480706065606DCD
:10127000C00403D4606D40F0010060652068C1685F
:10128000082E05D0490401D40C2101600020BDE7DF
:101290000821FAE710B50446006801F07CFC10B1A3
:1012A0000221084610BD94F8500001280CD00120FE
:1012B00084F850002046FFF757F901004FF0000076
:1012C00004D084F85000ECE7022010BD626D40F6B7
:1012D00001639A4342F480726265626DD20404D560
:1012E000A26D22F00602A26500E0A06523681C2220
:1012F0001A6084F850002068C268920105D5626DBA
:1013000022F4005242F4805262658268024B1A4015
:10131000121D8260C5E70000C0FFFF7F70B5044664
:1013200000F006F90546601C02D0044840680444F9
:1013300000F0FEF8401BA042FAD370BD2800002048
:1013400010B54FF40061884207D14FF0904000F093
:10135000E4F8012801D10149087010BD0000002007
:10136000044910B50A68024202D00860FFF7E8FF9E
:1013700010BD0000140401402DE9FC4FDFF880A1EE
:10138000002301250AF1040B03244FF00F0C0BF18D
:10139000040EAEE005FA03F632406FD04F68012F1D
:1013A00005D0022F03D0112F01D0122F17D1D0F862
:1013B00008905F0004FA07F829EA08090097D1F8B5
:1013C0000C8008FA07F848EA0908C0F8088047685E
:1013D000B7430E79C6F300169E403E434660C6688A
:1013E0004FEA430804FA08F7BE4301978F6807FAEB
:1013F00008F73743C7604E68022E01D0122E13D172
:10140000DE0800EB86060096366A5F07FF0E0CFAD0
:1014100007F926EA0906D1F8109009FA07F949EA0E
:101420000609009EC6F820900768019EB7430E7912
:1014300006F0030606FA08F63E4306604E68F6001C
:1014400056D5304E376E47F001073766366E23F0BB
:10145000030706F0010600962B4E3E44B146B668DF
:101460009F074FEA17780CFA08F7BE43B0F1904F88
:1014700005D0264FB84204D1012708E038E0002704
:1014800005E0234FB84201D1022700E0072707FA01
:1014900008F73743C9F80870DAF800605746D1F802
:1014A000048096435FEAC83800D516433E60DBF8F7
:1014B00000605F46D1F8048096435FEA883800D523
:1014C00016433E60DEF800607746D1F8048096430C
:1014D0005FEAC82800D516433E60094F0C373E68C6
:1014E000D1F8048096435FEA882800D516433E6011
:1014F0005B1C0A6832FA03F67FF44CAF00F00AB8BE
:1015000000040140001002400000014000040048B7
:10151000000800481CBCBDE8E08F0069084000D00E
:10152000012070470AB181617047816270470000F5
:101530000148806870470000280000200248816848
:1015400042681144816070472800002010B50024D3
:10155000032000F071F8002000F008F808B1012421
:1015600001E000F025F8204610BD000070B50E4ED9
:1015700005460024706898B14FF47A71B1FBF0F021
:101580000A490968B1FBF0F000F0B6FD40B9102D32
:1015900006D200222946501E00F02EF8356000E0E9
:1015A0000124204670BD00002800002034000020E7
:1015B000094808B5016E41F001010166016E01F0B4
:1015C00001010091816D41F080518165806D00F0D5
:1015D0008050009008BD000000100240002809DB88
:1015E00000F01F02012191404009800000F1E0203D
:1015F000C0F8001170470000F0B40E4B1B680C4699
:10160000C3F30223C3F10705042D00D90425191DD6
:10161000072901D2002300E0DB1E012606FA05F1AE
:10162000491E214099409E40761E16403143F0BC31
:1016300001F064BE0CED00E0064900F00702086806
:101640004FF6FF03184040EA0220034A10430860A7
:10165000704700000CED00E00000FA051649B0F5F7
:10166000007F0868C0F3412009D0022805D008682F
:1016700020F4C06040F480600860002070470128BA
:10168000FBD0086820F4C06040F4007008600B488C
:101690003222006850430A4AB0FBF2F0401C00E0DE
:1016A000401E4A69520501D50028F9D14869400514
:1016B000E3D5032070470000007000403400002094
:1016C00040420F000248006800F4C060704700000C
:1016D000007000400248016841F480710160704769
:1016E000007000400248016841F004010160704749
:1016F000001002402DE9F84F0446002700889C4D59
:101700003E46000515D5E06B60B1B0F5000F04D082
:10171000B0F5400F2BD001270AE0E86840F4803094
:10172000E86024E00021201D01F066FA07001ED0C9
:101730003E462068800338D5A86D4FF00008C000F1
:1017400009D4A86D40F08050A865A86D4FF001083D
:1017500000F080500090DFF81CA2DAF8001041F48D
:101760008071CAF80010FFF7E3FE814610E0D5F85B
:101770008800E16B20F440000843C5F88800D8E7F2
:10178000FFF7D6FEA0EB0900022801D9032704E0E9
:10179000DAF80000C005F3D5EFB33E46B8F1000F0C
:1017A00003D0A86D20F08050A8652078C00707D02E
:1017B000D5F88800216A20F003000843C5F88800A6
:1017C0002078800707D5D5F88800616A20F00C00E2
:1017D0000843C5F888002078800607D5D5F888002A
:1017E000A16A20F440600843C5F88800208880057D
:1017F00007D5D5F88800616B20F440200843C5F870
:1018000088002088400509D5D5F88800A16B20F410
:101810004010084300E02EE0C5F88800207840061C
:1018200007D5D5F88800E16A20F440500843C5F890
:1018300088002088C00507D5D5F88800216B20F4E2
:1018400040300843C5F8880020884FF000678004C6
:101850004FF080684ED5D5F88800216C20F04060AC
:101860000843C5F88800206CB8423BD1E86840F4D2
:101870008010E8603EE0D5F8900010F4407014D07D
:10188000216D814211D0D5F89000D5F8901020F448
:10189000407041F48031C5F89010D5F8901021F4D3
:1018A0008031C5F89010C5F89000C00711D0FFF73F
:1018B0003FFE074641F2883907E000BFFFF738FED8
:1018C000C11B494501D9032668E7D5F89000800778
:1018D000F4D5D5F89000216D20F440700843C5F888
:1018E00090005BE7404505D10121201D01F084F9FE
:1018F00000B106462068400317D5D5F88800616C12
:1019000020F040600843C5F88800606CB84204D1FC
:10191000E86840F48010E86007E0404505D1012107
:10192000201D01F069F900B106462088400411D558
:10193000D5F88800A16C20F040500843C5F8880015
:10194000A06CB0F1805F05D10221201D01F054F997
:1019500000B106462088000406D555F8880FE16CD2
:1019600020F0804008432860304600F005B80000B1
:10197000001002400070004018BCBDE8E08F00007D
:101980002DE9F0470F46050058D0404E306800F072
:101990000700B84209D2306820F0070038433060B1
:1019A000306800F00700B84248D12878384CC007AA
:1019B0002CD06868032811D0022812D0216898B171
:1019C000490500293ADAA16821F003010143A16029
:1019D000FFF7AEFD804641F2883910E021688901A9
:1019E000EFE721688903ECE78907EAE7FFF7A0FD45
:1019F000A0EB0801494502D90320BDE8F087A068A3
:101A0000696800F00C00B0EB810FEFD128788007F7
:101A100005D5A068A96820F0F0000843A0603068F0
:101A200000F00700B8420BD9306820F007003843B7
:101A30003060306800F00700B84201D00120DCE7D8
:101A40002878400705D5A068E96820F4E0600843DD
:101A5000A0602878000706D5A068296920F46050A6
:101A600040EAC100A06000F03FF8A168094AC1F354
:101A70000311515C01F01F01C84007490860074885
:101A80000068BDE8F047FFF771BD0000002002408C
:101A900000100240683600083400002028000020B2
:101AA0000548064900688968054AC1F30221515C6E
:101AB00001F01F01C84070473400002000100240B0
:101AC000A83600080548064900688968054AC1F338
:101AD000C221515C01F01F01C84070473400002052
:101AE00000100240A836000870B5254900231846AA
:101AF0008A68CC6812F00C0204F00306214C4FEA0D
:101B0000640509D00C2A05D0042A32D0082A00D155
:101B1000284670BD012E10D10B681B0704D4D1F8E4
:101B20009430C3F3032302E00B68C3F30313164E90
:101B300056F82330DAB10C2AEBD1C86800F0030064
:101B4000022818D0032818D01846CA68CB68C2F3F8
:101B50000212C3F306234343521CB3FBF2F2C868DC
:101B6000C0F34160401C4000B2FBF0F070BD18466D
:101B700070BD204670BD2046E7E72846E5E7000037
:101B8000001002400024F400783600082DE9F843E4
:101B900004006FD0FE4DA86800F00C06E86800F065
:101BA00003072078C00664D576B10C2E01D1012F31
:101BB0000AD0A069002828687AD040F00100286087
:101BC000FFF7B6FC80465DE02868800702D5A06973
:101BD0000028DED0216A2868000703D5286800F0B5
:101BE000F00004E0D5F89400F02202EA10108142DF
:101BF00016D9084601F096F800283BD1286840F035
:101C0000080028602868216A20F0F0000843286056
:101C10006868E16920F47F4040EA0120686016E0CE
:101C2000286840F0080028602868216A20F0F00049
:101C3000084328606868E16920F47F4040EA012099
:101C4000686026B9206A01F06DF80028D5D1FFF749
:101C50004BFFA968CF4AC1F30311515C01F01F018A
:101C6000C840CD490860CD480068FFF77FFC0028D8
:101C70007ED12EE0CAE000BFFFF75AFCA0EB0800BF
:101C8000022876D828688007F6D5286840F0080032
:101C900028602868216A20F0F000084328606868FE
:101CA000E16920F47F4040EA0120686011E0FFE72D
:101CB00020F001002860FFF73BFC804606E000BFF3
:101CC000FFF736FCA0EB08000228DAD82868800766
:101CD000F6D42078C00740D0082E18D00C2E01D1A1
:101CE000032F14D06068B0F5803F17D0B0F5A02F57
:101CF000286817D020F480302860286820F48020DD
:101D000028606068E0B1FFF713FC804614E02868A3
:101D1000800322D56068002878D01EE0286840F44F
:101D20008030EDE740F480202860F7E7FFF700FC03
:101D3000A0EB08006428A4D828688003F6D50CE03E
:101D4000FFF7F6FB804605E0FFF7F2FBA0EB08008B
:101D5000642896D828688003F6D4207880073BD57D
:101D6000042E11D00C2E01D1022F0DD0E06801E01D
:101D7000B6E1FFE0002828681ED040F4807028609B
:101D8000FFF7D6FB07460CE0286840050CD5E06855
:101D90000028C1D008E000BFFFF7CAFBC01B022823
:101DA00093D828684005F7D56868217C20F0F85062
:101DB00040EA016068600FE020F480702860FFF75F
:101DC000B7FB074605E000BFFFF7B2FBC01B0228C8
:101DD000B1D828684005F7D42078000729D5606974
:101DE0000028D5F8940012D040F00100C5F8940006
:101DF000FFF79EFB074604E0FFF79AFBC01B022893
:101E000099D8D5F894008007F6D512E02BE120F0A0
:101E10000100C5F89400FFF78BFB074605E000BF03
:101E2000FFF786FBC01B022885D8D5F894008007F1
:101E3000F6D42078400766D5A86D0027C00008D4E6
:101E4000A86D40F08050A865A86D012700F0805073
:101E5000009053480168C90512D40168814641F4D5
:101E600080710160FFF764FB804605E0FFF760FBCF
:101E7000A0EB080002287DD8D9F80000C005F5D5F0
:101E8000A068012816D00528D5F8900017D020F0BA
:101E90000100C5F89000D5F8900020F0040000BFC4
:101EA000C5F89000A06841F28839C0B1FFF740FB47
:101EB00080460FE0D5F8900040F00100F0E740F0D8
:101EC0000400C5F89000F5E7FFF732FBA0EB08012E
:101ED00049454FD8D5F890008007F5D50EE0FFF7BB
:101EE00027FB804606E000BFFFF722FBA0EB0801BE
:101EF00049453FD8D5F890008007F5D41FB1A86DAB
:101F000020F08050A8652078800628D5606A0028D7
:101F1000D5F8980012D040F00100C5F89800FFF7FE
:101F200007FB074605E000BFFFF702FBC01B0228C6
:101F300020D8D5F898008007F6D510E020F00100F1
:101F4000C5F89800FFF7F4FA074604E0FFF7F0FA47
:101F5000C01B02280ED8D5F898008007F6D4A06AD6
:101F6000A8B1022824D00C2E7DD0286820F08070E3
:101F7000286000E0B3E02868000103D4E86820F09E
:101F80000300E860E86807490840E8600CE09FE06B
:101F900000100240683600083400002028000020AD
:101FA00000700040FFFFEEFEFFF7C2FA044699E022
:101FB000E868E26A00F00301914226D1216B00F04B
:101FC00070020901103991421FD1626B00F4FE4189
:101FD000B1EB022F19D194F8382000F07841B1EB21
:101FE000C26F12D1A18F00F4C00249084905A1F5C2
:101FF0000011914209D194F8401000F0C0604908E6
:102000004906A1F1007181424BD00C2E6FD0286897
:1020100040016CD4286820F080702860FFF788FAAF
:10202000064604E0FFF784FA801B022857D8286888
:102030008001F7D4F4E90B016FF00F0202EB0111FC
:102040000843218A5204490802EB4151A26841EA3F
:1020500002210843217D4FF07E42490802EB416195
:102060000843217B00E042E040EAC160E968214A80
:1020700011400843E860286840F080702860E868F4
:1020800040F08070E860FFF753FA044605E000BFB7
:10209000FFF74EFA001B022821D828688001F7D5E7
:1020A00023E02868800120D4286840F080702860F0
:1020B000E86840F08070E860FFF73AFA044604E010
:1020C000FFF736FA001B022809D828688001F7D5E7
:1020D0000BE000BFFFF72CFA001B022802D90320F7
:1020E000BDE8F88328688001F4D40020F8E70120D7
:1020F000F6E700008C809D0110B5401EB0F1807F96
:1021000001D3012010BD4FF0E02460610F21601762
:1021100001F0F4F80020A06107202061002010BD2C
:10212000704770477047704770B504460068016992
:102130004FF00005C943890715D4C168C943890711
:1021400011D4E91E01610120207720688069800791
:10215000204602D0FFF7E7FF04E000F0A7F8204692
:1021600000F0A5F8257720680169C943490717D40D
:10217000C168C943490713D46FF00401016102200B
:1021800020772068806910F4407F204602D0FFF756
:10219000CAFF04E000F08AF8204600F088F82577AE
:1021A00020680169C943090716D4C168C9430907F2
:1021B00012D46FF008010161042020772068C06903
:1021C0008007204602D0FFF7AEFF04E000F06EF873
:1021D000204600F06CF8257720680169C943C906DC
:1021E00017D4C168C943C90613D46FF01001016147
:1021F000082020772068C06910F4407F204602D074
:10220000FFF791FF04E000F051F8204600F04FF88E
:10221000257720680169C943C90708D1C168C94346
:10222000C90704D1891E0161204600F041F82068E9
:102230000169C943090609D4C168C943090605D41F
:102240006FF0800101612046FFF76BFF2068016994
:10225000C943C90509D4C168C943090605D46FF447
:10226000807101612046FFF75BFF20680169C94367
:10227000490609D4C168C943490605D46FF0400135
:102280000161204600F01AF820680169C9438906F7
:102290000BD4C168C943890607D46FF020010161DE
:1022A0002046BDE87040FFF73DBF70BD70477047E6
:1022B000014901200870704700000020704710B5E8
:1022C000040002D0606F10B107E0012010BD0020B3
:1022D00084F87000204600F025F82420606720680C
:1022E000016821F001010160204600F08FFE012805
:1022F000ECD0606A10B1204600F0F8FD206841681B
:1023000021F4904141602068816821F02A018160B8
:102310002068016841F0010101602046BDE81040DD
:1023200000F048BE704700002DE9F8430446406FB6
:102330001F4616460D4620284FD1CDB1C6B194F8A0
:102340007000012849D0012084F870004FF0000887
:10235000C4F87C8021206067FFF7EAF8A4F8506099
:102360008146A4F85260A068B0F5805F03D004E015
:102370000120BDE8F883206928B12E465FF00005F2
:1023800084F8708010E00026FAE78021204600F0F3
:1023900051FFB8B9C6B116F8010B21680885B4F829
:1023A0005200401EA4F85200B4F852004B464FF0C1
:1023B000000200970028E8D14FF04001204600F0CD
:1023C00039FF30B10320D4E735F8020BC0F3080021
:1023D000E3E7202060670020CBE70220C9E7000088
:1023E00010B500F011FA0223BDE81040024A194668
:1023F000802000F07BBB000020000020D0ED000A10
:102400009FED090A60EE800AFCEEE00A10EE900AE9
:102410001080D1ED000A20EE800ABCEEC00A10EE5A
:10242000100A1880704700000000C8420388DFEDE2
:10243000171A5BBA00EE103A4088F8EE400A9FED9A
:10244000120A40BA60EE800A60EE800A60EE800AEE
:1024500020EE801ADFED0E0A51EE210AC1ED000ACE
:1024600000EE900AF8EE600A60EE800A60EE800AE4
:1024700060EE800A20EE800ADFED060A20EE200AD8
:1024800082ED000A704700000000803D00002543F7
:10249000000020420000C84204220146802000F0D3
:1024A00034BA0021802000F055BAFEE710B54FF095
:1024B0009044002210212046FFF734F8052001F057
:1024C000CAF8012208212046FFF72CF8052001F068
:1024D000C2F8002208212046FFF724F8BDE810408A
:1024E000052001F0B8B80000F0B587B014216846A7
:1024F000FDF7A3FE1748C16C41F00101C164C16C36
:1025000001F001010591C16C41F00101C164C06C91
:10251000112400F0010005900820012503268DE814
:1025200071004FF0904769463846FEF725FF1020AE
:102530008DE8710069463846FEF71EFF0122102122
:102540003846FEF7EFFF012208213846FEF7EAFF82
:1025500007B0F0BD0010024010B54FF090440122CA
:1025600010212046FEF7DEFF052001F074F801225D
:1025700008212046FEF7D6FF052001F06CF8002266
:1025800008212046FEF7CEFFBDE81040052001F0EF
:1025900062B870B54FF090460024012210213046F9
:1025A000FEF7C0FF022001F056F800256006040E79
:1025B000012208213046FEF7B5FF10213046FEF714
:1025C000ACFF08B144F00104052001F044F80022FA
:1025D00008213046FEF7A6FF052001F03CF86D1CEF
:1025E000EDB2082DE2D3204670BD70B514460D46FD
:1025F000064600F063F830B1761CF0B200F034F813
:1026000000F0B0F858B900F08BF8002070BDFFF76B
:10261000C0FF05F8010BFFF749FF641EE4B2012C6F
:10262000F5D1FFF7B6FF2870FFF796FF00F078F8B6
:10263000012070BD70B50C46054600F03FF878B13A
:10264000284600F011F800F08DF848B1204600F05F
:102650000BF800F087F818B100F062F8012070BDA7
:1026600000F05EF8002070BD70B505464FF0904652
:10267000002208213046FEF755FF0024280601D528
:10268000012200E0002210213046FEF74BFF01221C
:1026900008213046FEF746FF052000F0DCFF00224F
:1026A00008213046FEF73EFF052000F0D4FF680603
:1026B000641C050EE4B2082CE0D370BD10B54FF0D9
:1026C0009044012210212046FEF72CFF052000F047
:1026D000C2FF012208212046FEF724FF052000F05A
:1026E000BAFF10212046FEF718FF00280DD0002267
:1026F00010212046FEF716FF052000F0ACFF102148
:102700002046FEF70AFF08B1002010BD0022082174
:102710002046FEF707FF052000F09DFF012010BDB9
:1027200010B54FF09044002210212046FEF7FAFE2B
:10273000002208212046FEF7F5FE052000F08BFF61
:10274000012208212046FEF7EDFE052000F083FF60
:10275000012210212046FEF7E5FEBDE810400520CD
:1027600000F079BF70B54FF0904500240122102190
:102770002846FEF7D7FE012208212846FEF7D2FEA2
:102780004FF4FA7603E0641CA4B2B44205D01021E1
:102790002846FEF7C2FE0028F5D110212846FEF794
:1027A000BCFE00284FF000024FF00801284606D07A
:1027B000FEF7B8FE052000F04EFF002070BDFEF7CA
:1027C000B1FE052000F047FF012070BD10B54FF0AD
:1027D0009044002240212046FEF7A4FE052000F090
:1027E0003AFF012220212046FEF79CFE052000F042
:1027F00032FF002220212046FEF794FEBDE8104063
:10280000052000F028BF0000F0B587B0142168460D
:10281000FDF713FD1748C16C41F00101C164C16CA3
:1028200001F001010591C16C41F00101C164C06C6E
:10283000112400F0010005902020012503268DE8D9
:1028400071004FF0904769463846FEF795FD4020ED
:102850008DE8710069463846FEF78EFD0122402161
:102860003846FEF75FFE012220213846FEF75AFE69
:1028700007B0F0BD0010024010B54FF090440122A7
:1028800040212046FEF74EFE052000F0E4FE012226
:1028900020212046FEF746FE052000F0DCFE002247
:1028A00020212046FEF73EFEBDE81040052000F046
:1028B000D2BE70B54FF09046002401224021304630
:1028C000FEF730FE022000F0C6FE00256006040E72
:1028D000012220213046FEF725FE40213046FEF73A
:1028E0001CFE08B144F00104052000F0B4FE0022F3
:1028F00020213046FEF716FE052000F0ACFE6D1CD0
:10290000EDB2082DE2D3204670BD70B514460D46D9
:10291000064600F063F830B1761CF0B200F034F8EF
:1029200000F0B0F858B900F08BF8002070BDFFF748
:10293000C0FF05F8010BFFF749FF641EE4B2012C4C
:10294000F5D1FFF7B6FF2870FFF796FF00F078F893
:10295000012070BD70B50C46054600F03FF878B117
:10296000284600F011F800F08DF848B1204600F03C
:102970000BF800F087F818B100F062F8012070BD84
:1029800000F05EF8002070BD70B505464FF090462F
:10299000002220213046FEF7C5FD0024280601D57F
:1029A000012200E0002240213046FEF7BBFD01225B
:1029B00020213046FEF7B6FD052000F04CFE002237
:1029C00020213046FEF7AEFD052000F044FE6806EB
:1029D000641C050EE4B2082CE0D370BD10B54FF0B6
:1029E0009044012240212046FEF79CFD052000F086
:1029F00032FE012220212046FEF794FD052000F042
:102A00002AFE40212046FEF788FD00280DD0002236
:102A100040212046FEF786FD052000F01CFE4021E7
:102A20002046FEF77AFD08B1002010BD00222021CB
:102A30002046FEF777FD052000F00DFE012010BDB9
:102A400010B54FF09044002240212046FEF76AFD69
:102A5000002220212046FEF765FD052000F0FBFD49
:102A6000012220212046FEF75DFD052000F0F3FD48
:102A7000012240212046FEF755FDBDE8104005200B
:102A800000F0E9BD70B54FF09045002401224021CF
:102A90002846FEF747FD012220212846FEF742FD89
:102AA0004FF4FA7603E0641CA4B2B44205D040218E
:102AB0002846FEF732FD0028F5D140212846FEF7D2
:102AC0002CFD00284FF000024FF02001284606D0D0
:102AD000FEF728FD052000F0BEFD002070BDFEF7CA
:102AE00021FD052000F0B7FD012070BD2DE9F0416A
:102AF0001C4615460E460746FFF770FFE0B1384604
:102B0000FFF742FFFFF7BEFFB0B13046FFF73CFFD3
:102B1000FFF7B8FF80B108E015F8010BFFF734FFAD
:102B2000FFF7B0FF40B1641EE4B2002CF4D1FFF710
:102B300087FF0120BDE8F081FFF782FF0020F9E761
:102B400070B514460D460646FFF748FFA8B130465B
:102B5000FFF71AFFFFF796FF78B12846FFF714FF3B
:102B6000FFF790FF48B12046FFF70EFFFFF78AFFFF
:102B700018B1FFF765FF012070BDFFF761FF00206E
:102B800070BD00EB8100006E00F0F8407047806877
:102B9000C0F3C00070478068C0F380007047C06811
:102BA00010F4406F01D000207047012070470423CB
:102BB00003EAD15310B518444369C1F30451072403
:102BC0008C40A3438A401343436110BD00EB810056
:102BD000016E21F00041114301667047FEE7704726
:102BE000704710B5FDF7F4FCFFF7FAFBFDF78AFD1F
:102BF000BDE8104000F0D5B82DE9F041444C054641
:102C00008846E0680026810728680DD0E16801F059
:102C10000301814216D1A8B1E0686968C0F30210CF
:102C2000401C88420ED120E0012804D0022805D0A3
:102C3000032807D108E02168890701E021684905D8
:102C4000002907DB01265FE02168890302D421689F
:102C50004903F5E7E1686A686FF00F0321F073013B
:102C600003EB021211430143E160206820F0806011
:102C70002060FEF75DFC074605E000BFFEF758FC4C
:102C8000C01B022837D820680001F7D4B8F1000F24
:102C900018D0B8F1010F1DD0287D4FF07E414008BB
:102CA00001EB4060A96840EA01202169194A1140FE
:102CB00008432061206840F080602060FEF738FC07
:102CC00007461AE0A868297B000240EAC160216932
:102CD000114AECE7288A1149400801EB4050A968E5
:102CE00040EA012021690E4AE1E700BFFEF720FC1F
:102CF000C01B022801D9032606E020680001F5D593
:102D00002069A969084320613046BDE8F0810000D0
:102D100000100240FF80FFF9FF80FF070000E0FF86
:102D2000FF809FFFF8B51C4D06460024A86DC0002B
:102D300002D5FEF7C7FC0DE0A86D40F08050A865F5
:102D4000A86D00F080500090FEF7BCFCA96D21F04A
:102D50008051A965B0F5007F04D0802E07D94FF0CF
:102D600003040AE0802E08D9A02E01D804E001D186
:102D7000022402E0702E00D101240848016821F0ED
:102D8000070121430160006800F00700A04201D064
:102D90000120F8BD0020F8BD0010024000200240D4
:102DA0007047FDF747BC000010B50D48FEF772FAFA
:102DB0000A210B48FEF71AFA0948FEF710F9094CE8
:102DC00080B2642120804843FDF7B1FA9FED061BD5
:102DD00053EC112BFDF73CFAFDF7B6FA608010BDFD
:102DE0003C000020220000207B14AE47E17A4440E2
:102DF000FEF7A4BB2DE9F041ACB0442115A8FDF7C6
:102E00001CFA142126A8FDF718FA54216846FDF78C
:102E100014FAFEF75FFC204850F8901F21F01801CB
:102E2000016014201590602001241D900025179446
:102E30000226CDE91B45CDE91F644FF00708CDE917
:102E4000238610272596CDE9214715A8FEF79EFE7B
:102E50000F2026900320CDE927052995012126A8DA
:102E60002A95FEF78DFD44F202000090C0061290F4
:102E700001940011CDE906600995CDE90486CDE9FC
:102E800002476846FEF736FC6002FEF7E7FBFEF7F6
:102E900029FC2CB0BDE8F081001002400D4801680B
:102EA00041F4700101600C48016841F001010160CA
:102EB000002181600268094B1A4002608214C260DE
:102EC000026822F48022026081610249C0038039D5
:102ED0000860704788ED00E000100240FFFFF6EA4E
:102EE0000148FFF721B900004001002090F82410AC
:102EF000C90706D001684A68836A22F400321A437F
:102F00004A6090F82410890706D501684A68C36AA8
:102F100022F480321A434A6090F82410490706D5FB
:102F200001684A68036B22F480221A434A6090F8D1
:102F30002410090706D501684A68436B22F4004251
:102F40001A434A6090F82410C90606D501688A68B9
:102F5000836B22F480521A438A6090F82410890609
:102F600006D501688A68C36B22F400521A438A604E
:102F700090F82410490611D501684A68036C22F4C0
:102F800080121A434A60016CB1F5801F06D10168B6
:102F90004A68436C22F4C0021A434A6090F8241035
:102FA000090606D501684A68806C22F400220243B3
:102FB0004A607047F8B500260446C667FEF7B8FABF
:102FC0000546206800686FF07E47000708D52B464D
:102FD00000224FF400112046009700F02BF960B951
:102FE0002068006840070AD52B4600224FF4800174
:102FF0002046009700F01EF908B10320F8BD2020FC
:103000006067A06784F870600020F8BD2DE9F0418A
:10301000044600682369A268E5691A4363690027CA
:103020002B431A437A4903687A4D2B4013430360BC
:1030300020684268E36822F440521A4342602268E2
:10304000A0698A4201D0236A1843936823F430634D
:1030500003439360704B226870489A420DD1D0F8B8
:10306000880010F0030006D0012838D0022834D0A0
:10307000032821D135E001251FE0694B9A420BD18D
:10308000D0F8880010F00C0025D0042827D008289C
:1030900023D00C2810D124E08A420DD1D0F888002A
:1030A00010F4406017D0B0F5806F18D0B0F5006F05
:1030B00013D0B0F5406F14D010255A4B00264FF4B2
:1030C00000408A4245D175B1022D0FD0042D0FD09A
:1030D000082D18D10FE00025EFE70225EDE70425C4
:1030E000EBE70825E9E7FEF7DBFC03E0184602E022
:1030F000FEF7FAFCA8B3626802EB4201814202D8F3
:10310000B0EB023F01D901276FE0DFF81C815DB110
:10311000022D0CD0042D13D0082DF4D15008290510
:10312000401846F1000105E0FEF7BAFC0AE050083D
:103130003E49F5E70023FDF745F8A0F5407150E062
:10314000FEF7D2FC6268010E0302500818187141A4
:10315000F0E7E1694FF6EF7881422FD1092DD2D205
:1031600000E042E0DFE805F006092005230505053B
:103170002600C8E7FEF794FC01E0FEF7A3FC41003F
:10318000D4F8040001EB5001B1FBF0F080B2A0F1E3
:1031900010014145B7D84FF6F0710140C0F342002D
:1031A00001432068C16020E021496068EAE7FEF73A
:1031B0009BFCE4E74FF480316068E3E7092DA2D27D
:1031C000DFE805F0060918051E05050520009AE749
:1031D000FEF766FC16E0FEF775FC13E080B2A0F186
:1031E000100141458FD82168C8602666384666665A
:1031F000BDE8F081606803EB5001B1FBF0F0EDE752
:10320000FEF772FC616800EB5100B0FBF1F0E5E7FE
:1032100000800040F369FFEF0038014000100240D9
:10322000004400400024F400FFFC0F00000024F4E0
:103230000048E8012DE9F0479A4617460E46044635
:103240004FF000094FF02008089D39E0681C37D086
:10325000FEF76EF9A0EB0A00A84222D80DB3206851
:10326000016849072CD5C069C043000528D42168EE
:103270004FF4006008622068016821F4D071016099
:103280002068816821F001018160C4F87480C4F86D
:103290007880C4F87C8000BF84F870900320BDE87B
:1032A000F0872068016821F4D0710160206881688E
:1032B00021F001018160C4F87480C4F87880EBE7E4
:1032C0002068C06936EA000004D00020B842BDD0B2
:1032D0000020E4E70120F9E7FEE700000FB4054B0A
:1032E00010B503A9044A029800F028F810BC5DF854
:1032F00014FB000099340008380000200907090E6B
:10330000002804DB00F1E02080F80014704700F092
:103310000F0000F1E02080F8141D704702E008C89B
:10332000121F08C1002AFAD170477047002001E03F
:1033300001C1121F002AFBD1704700002DE9FF4F89
:1033400089B09B460446002506E025280BD05A4646
:103350000B999047641C6D1C20780028F5D10DB0A6
:10336000284600F095B80027B8460122474900E0FA
:10337000074314F8013F203B02FA03F00842F7D15B
:1033800020782E2819D114F8010F47F004072A28B5
:103390000ED06FF02F022078A0F1300109290CD84F
:1033A00008EB880102EB410100EB0108641CF2E725
:1033B0000A98641C50F8048B0A9020780028CED01C
:1033C000642808D0692806D075281ED05A460B9963
:1033D00090476D1C58E00A994FF00A0901C90A91FB
:1033E000002802DA40422D2102E0390504D52B21C4
:1033F0008DF82010012103E0F90704D02021F7E720
:103400008A4608AE0DE00021FAE70A994FF00A0952
:1034100001C90A91F7E74946FCF7CBFF303106F8BE
:10342000011D0028F7D1ADEB060000F12009780757
:1034300001D44FF00108C84502DDA8EB090000E007
:1034400000208046002706E008A85A46C05D0B9978
:1034500090476D1C7F1C5745F6DB04E030205A4630
:103460000B9990476D1CB8F10001A8F10108F5DC3B
:1034700005E016F8010B5A460B9990476D1CB9F1FF
:103480000001A9F10109F4DC641C65E709280100C9
:1034900030BCBDE8C08F000013B54FF6FF730122AA
:1034A00069460248FEF740FF00981CBDA0000020BE
:1034B000FEF74CF8FFF79EFCFDF7D6FAFDF70AFB86
:1034C000FFF78FFBFDF768FB0225084C00262078EC
:1034D0000028FCD0012805D00228F8D100F044F8DB
:1034E0002670F4E700F004F82570F0E700000020F3
:1034F00010B5FDF7E7FAFDF792F8FEF7D2FFFDF7FA
:10350000F7F8FDF761FAFFF74FFC9620FDF706FF8D
:103510000D48FDF77FF80D490B48FDF767F80C499A
:103520000A48FDF757F80B48FEF7B6FF0A4A0B4961
:103530000848FEF77BFFBDE81040094B094A0649E1
:103540000648FEF75BBF00000100002004000020D9
:1035500008000020100000201800002014000020A7
:103560001E0000201C0000203EB52FA207CA8DE8D7
:10357000070030480088010A8DF800108DF801001E
:103580002D480088010A8DF802108DF803002B48A1
:103590000088010A8DF804108DF80500284800887D
:1035A000010A8DF806108DF8070026480088010AE8
:1035B0008DF808108DF809006946234800F046F898
:1035C0006C462148611C00F041F8A11C1E4800F027
:1035D0003DF8E11C1C4800F039F8211D1A4800F0A4
:1035E00035F8611D184800F031F8A11D164800F0AB
:1035F0002DF8E11D144800F029F8134802A900F045
:1036000025F811480DF1090100F020F80E480DF1E0
:103610000A0100F01BF80C480DF10B0100F016F840
:10362000FDF748FA3EBD0000FFFFFFFFFFFFFFFF71
:10363000FFFF0D0A080000201C0000201E000020D3
:103640003601002024000020A00000204FF6FF7368
:103650000122FEF769BE04E00621491E0904090C97
:10366000FBD1401EF8D270470000000000000000AF
:103670000102030406070809A0860100400D0300AB
:10368000801A060000350C0040420F0080841E00A6
:1036900000093D0000127A000024F40000366E019B
:1036A0000048E801006CDC02000000000102030495
:1036B000747279696E6720746F207472616E7369B9
:1036C00074696F6E2074686520434353383131202C
:1036D00073746174652066726F6D20626F6F742001
:1036E000746F206170706C69636174696F6E206DB6
:1036F0006F64652E2E2E0D0A000000001C37000896
:10370000000000203C0000001C330008583700086F
:103710003C000020440500002C330008000000009D
:1037200000000000000001045A000000000000003A
:103730000000000000000000000000001000000079
:103740000000000010000000010000000000000068
:0837500000093D00000000002B
:040000050800018D61
:00000001FF
