:020000040800F2
:1000000098040020A1010008F31E000885190008CB
:10001000F11E00082908000805280008000000005B
:1000200000000000000000000000000001230008A4
:10003000E508000800000000F51E00080323000882
:10004000BB010008BB010008BB010008BB010008A0
:10005000BB010008BB010008BB010008BB01000890
:10006000BB010008BB010008BB010008BB01000880
:10007000BB010008BB010008BB010008BB01000870
:10008000BB010008BB010008BB010008BB01000860
:10009000BB010008BB010008BB010008BB01000850
:1000A000BB010008BB010008BB010008BB01000840
:1000B000BB0100080000000000000000BB010008B8
:1000C000BB0100080000000000000000BB010008A8
:1000D00000000000BB010008F92700080000000034
:1000E000BB010008BB010008000000000000000088
:1000F0000000000000000000000000000000000000
:10010000000000000000000000000000BB0100082B
:100110000000000000000000BB010008BB01000857
:10012000BB010008BB010008BB010008BB010008BF
:10013000BB010008000000000000000000000000FB
:10014000BB010008BB010008BB010008BB0100089F
:10015000BB010008BB010008BB010008BB0100088F
:10016000BB010008BB010008BB0100080000000043
:10017000BB010008BB0100080000000000000000F7
:10018000BB010008BB010008BB010008DFF80CD070
:1001900000F038FB00480047413100089804002077
:1001A0000648804706480047FEE7FEE7FEE7FEE711
:1001B000FEE7FEE7FEE7FEE7FEE7FEE79523000821
:1001C0008D0100082DE9F05F0546002092469B4610
:1001D00088460646814640241BE02846414647465D
:1001E000224600F0BAF953465A46C01A914110D33C
:1001F00011461846224600F0A1F92D1A67EB0108B6
:100200004F4622460120002100F098F917EB000923
:100210004E41201EA4F10104DFDC484631462A4647
:10022000434600F000B830BCBDE8C09FD2B201E048
:1002300000F8012B491EFBD270470022F6E710B5EB
:1002400013460A4604461946FFF7F0FF204610BD44
:100250002DE9FE4F804681EA0300C00F0C46009056
:1002600021F0004123F00045B8EB0200A94105D27E
:100270004046214690461C460B46024623F000406D
:10028000104347D0270DC7F30A00C3F30A51029069
:10029000401A019040286BDAC3F3130040F4801B2E
:1002A0000098924620B10023D2EB030A63EB0B0BBC
:1002B00001985946C0F14002504600F03FF9064609
:1002C0000D4650465946019A00F057F910EB0800C8
:1002D0006141002487EA115284EAE7731A4340D04F
:1002E000009A62B3019A012A4FEA075215DC001BFB
:1002F00061EB02014FF0004202EA0752CDE90042F1
:10030000001C41F5801132462B4600F08EF903B0F7
:1003100000F045B840462146F9E7001B61EB0201B9
:10032000001C41F5801300185B412018A2F500174E
:1003300047EB030140EAD570B6196D4111E06D0835
:100340004FEA360645EAC0754FEA0752001B61EBDB
:100350000201001C41F5801149084FEA30000019E4
:10036000514132462B4603B000F01CB800F04EB9A4
:100370000098012240000023D0EB020263EBE073FF
:10038000009821464FEAE074B8EB000061EB0401ED
:10039000E9E783F000435BE781F0004158E730BCB8
:1003A000BDE8C08F30BCBDE8C04FFFF7DFBF2DE90F
:1003B000FE4F81EA030404F0004421F00041009460
:1003C0004FF0000B23F0004350EA01045ED052EAE4
:1003D00003045BD0C3F30A54C1F30A552C44A4F2BE
:1003E000F3340194A0FB0254C1F3130141F48011D2
:1003F000C3F3130343F4801301FB024400FB034ED9
:10040000840A970A44EA815447EA8357A4FB0768A1
:1004100002958D0A05FB07854FEA932C04FB0C54CB
:100420002705029D4FEA065847EA1637B5EB08053F
:100430006EEB070C870E920E47EA811742EA831291
:10044000A7FB0201B6EB0B0164EB00042B0D43EAA2
:100450000C335E1844EB1C50DA465146E7FB0201B0
:10046000C5F313044FEA0B3343EA14534FEA043243
:10047000019C43EA0603A4F10C040294009CCDE91C
:1004800000B400F0D2F803B000F003B80020014639
:10049000F9E730BCBDE8C08F0EB540F233410291A0
:1004A0000021CDE900110A460B4600F0BEF803B06A
:1004B00000BD00F0004230F000400AD0C10D01F54F
:1004C0006071C0F3160042EA0151C20840071143AF
:1004D000704700200146704701F0004330B421F01E
:1004E000004150EA010206D00A0DA2F56072C1F384
:1004F0001301002A02DC30BC00207047440F44EA9C
:10050000C104C100E01830BC00EBC25000F047B895
:1005100030B50B46014600202022012409E021FAD3
:1005200002F59D4205D303FA02F5491B04FA02F5D0
:100530002844151EA2F10102F1DC30BD202A04DBA3
:10054000203A00FA02F1002070479140C2F12003E6
:1005500020FA03F3194390407047202A04DB203A25
:1005600021FA02F00021704721FA02F3D040C2F1D3
:1005700020029140084319467047202A06DBCB171A
:10058000203A41FA02F043EAE07306E041FA02F34E
:10059000D040C2F12002914008431946704700291B
:1005A000A8BF7047401C490008BF20F001007047F9
:1005B00010B4B0FA80FC00FA0CF050EA010404BF59
:1005C00010BC704749B1CCF1200421FA04F411FAAF
:1005D0000CF118BF012121430843A3EB0C01CB1DF3
:1005E0004FEA00614FEA102042BF002010BC704764
:1005F00000EBC35010440029A4BF10BC7047401C3E
:10060000490008BF20F0010010BC704710B5141E4F
:1006100073F1000408DA401C41F1000192185B41BB
:100620001A4301D120F0010010BD2DE9F04D924692
:100630009B4611B1B1FA81F202E0B0FA80F22032A9
:100640009046FFF77BFF04460F4640EA0A0041EA66
:100650000B0153465A46084313D0114653EA010092
:1006600019D0C8F140025046FFF777FF05460E4605
:10067000504659464246FFF761FF084305D0012026
:1006800004E020463946BDE8F08D0020054346EAE7
:10069000E0762C4337430A986305E40AA0EB080090
:1006A0000022FD0A44EA47540A3002D500200146E0
:1006B000E9E7010510196941DDE9084500196941BB
:1006C000BDE8F04DA2E72DE9F04D81EA030404F006
:1006D000004B21F0004514464FF0000A23F0004182
:1006E00050EA050220D054EA01021DD0C5F30A5792
:1006F0000246C5F31303C1F31300C1F30A5640F4D5
:10070000801543F48013A7EB0608101BD64608F2A9
:10071000FD3873EB050002D308F1010801E09218DF
:100720005B41B8F1000F03DA00200146BDE8F08D0F
:1007300000204FF48011064684460EE0171B73EB31
:10074000050705D3121B63EB050306434CEA010CB6
:1007500049084FEA300092185B4150EA0107EDD199
:1007600052EA030012D082EA040083EA050108433A
:1007700005D0101BAB4106D20122002306E0002267
:100780004FF0004302E06FF0010253101AEB060035
:100790004CEB085110EB0A0041EB0B01BDE8F04DAA
:1007A000FFF734BFC1F30A52C1F3130140F2FF3324
:1007B00041F480119A4202DA00200146704740F26B
:1007C00033439A42A2F2334202DC5242FFF7C5BEE3
:1007D000FFF7B4BE30B5041E71F1000404DB4FF026
:1007E0000044404264EB0101141E73F1000405DB78
:1007F0001C464FF00043524263EB0403994208BF8A
:10080000904230BD064C074D06E0E06840F0010321
:1008100094E8070098471034AC42F6D3FFF7BAFCCF
:10082000D8310008F8310008FEE700002DE9F0415A
:1008300086B014216846FFF700FD274DE86C40F0B4
:100840000100E864E86C00F001000590E86C40F0FD
:100850000100E864E86C022700F001000590042024
:10086000CDE900070024032602940720CDE90360A8
:100870004FF090486946404600F06EF8B803CDE965
:100880000007CDE9024669460496404600F064F848
:10089000A86D40F40030A865A86D104900F4003040
:1008A00005900F4801604FF4E131C0E901140C21BB
:1008B000C460C0E904418461C4610462446200F020
:1008C000D1FF00221146262000F086F9262000F0F4
:1008D00075F906B0BDE8F081001002400044004008
:1008E00014000020704710B590F82510002402294C
:1008F00003D00421C16301241AE001680A6822F0D0
:100900000E020A6001680A6822F001020A6090F88B
:100910004410036C01F01C02012101FA02F25A603A
:1009200080F82510002180F82410816B01B18847E0
:10093000204610BD70B5044600F0EAF80546601C7C
:1009400002D004484068044400F0E2F8401BA04292
:10095000FAD370BD000000202DE9FC4FDFF880A124
:10096000002301250AF1040B03244FF00F0C0BF1B7
:10097000040EAEE005FA03F632406FD04F68012F47
:1009800005D0022F03D0112F01D0122F17D1D0F88C
:1009900008905F0004FA07F829EA08090097D1F8DF
:1009A0000C8008FA07F848EA0908C0F80880476888
:1009B000B7430E79C6F300169E403E434660C668B4
:1009C0004FEA430804FA08F7BE4301978F6807FA15
:1009D00008F73743C7604E68022E01D0122E13D19C
:1009E000DE0800EB86060096366A5F07FF0E0CFAFB
:1009F00007F926EA0906D1F8109009FA07F949EA39
:100A00000609009EC6F820900768019EB7430E793C
:100A100006F0030606FA08F63E4306604E68F60046
:100A200056D5304E376E47F001073766366E23F0E5
:100A3000030706F0010600962B4E3E44B146B66809
:100A40009F074FEA17780CFA08F7BE43B0F1904FB2
:100A500005D0264FB84204D1012708E038E000272E
:100A600005E0234FB84201D1022700E0072707FA2B
:100A700008F73743C9F80870DAF800605746D1F82C
:100A8000048096435FEAC83800D516433E60DBF821
:100A900000605F46D1F8048096435FEA883800D54D
:100AA00016433E60DEF800607746D1F80480964336
:100AB0005FEAC82800D516433E60094F0C373E68F0
:100AC000D1F8048096435FEA882800D516433E603B
:100AD0005B1C0A6832FA03F67FF44CAF00F00AB8E8
:100AE00000040140001002400000014000040048E2
:100AF000000800481CBCBDE8E08F0069084000D039
:100B0000012070470AB1816170478162704700001F
:100B1000014880687047000000000020024881689A
:100B200042681144816070470000002010B5002425
:100B3000032000F071F8002000F008F808B101244B
:100B400001E000F025F8204610BD000070B50E4E03
:100B500005460024706898B14FF47A71B1FBF0F04B
:100B60000A490968B1FBF0F000F0B6FD40B9102D5C
:100B700006D200222946501E00F02EF8356000E013
:100B80000124204670BD0000000000200C00002061
:100B9000094808B5016E41F001010166016E01F0DE
:100BA00001010091816D41F080518165806D00F0FF
:100BB0008050009008BD000000100240002809DBB2
:100BC00000F01F02012191404009800000F1E02067
:100BD000C0F8001170470000F0B40E4B1B680C46C3
:100BE000C3F30223C3F10705042D00D90425191D01
:100BF000072901D2002300E0DB1E012606FA05F1D9
:100C0000491E214099409E40761E16403143F0BC5B
:100C100001F00ABE0CED00E0064900F0070208688A
:100C20004FF6FF03184040EA0220034A10430860D1
:100C3000704700000CED00E00000FA051649B0F521
:100C4000007F0868C0F3412009D0022805D0086859
:100C500020F4C06040F480600860002070470128E4
:100C6000FBD0086820F4C06040F4007008600B48B6
:100C70003222006850430A4AB0FBF2F0401C00E008
:100C8000401E4A69520501D50028F9D1486940053E
:100C9000E3D5032070470000007000400C000020E6
:100CA00040420F000248006800F4C0607047000036
:100CB000007000400248016841F480710160704793
:100CC000007000400248016841F004010160704773
:100CD000001002402DE9F84F0446002700889C4D83
:100CE0003E46000515D5E06B60B1B0F5000F04D0AD
:100CF000B0F5400F2BD001270AE0E86840F48030BF
:100D0000E86024E00021201D01F0F6F807001ED065
:100D10003E462068800338D5A86D4FF00008C0001B
:100D200009D4A86D40F08050A865A86D4FF0010867
:100D300000F080500090DFF81CA2DAF8001041F4B7
:100D40008071CAF80010FFF7E3FE814610E0D5F885
:100D50008800E16B20F440000843C5F88800D8E71C
:100D6000FFF7D6FEA0EB0900022801D9032704E013
:100D7000DAF80000C005F3D5EFB33E46B8F1000F36
:100D800003D0A86D20F08050A8652078C00707D058
:100D9000D5F88800216A20F003000843C5F88800D0
:100DA0002078800707D5D5F88800616A20F00C000C
:100DB0000843C5F888002078800607D5D5F8880054
:100DC000A16A20F440600843C5F8880020888005A7
:100DD00007D5D5F88800616B20F440200843C5F89A
:100DE00088002088400509D5D5F88800A16B20F43B
:100DF0004010084300E02EE0C5F888002078400647
:100E000007D5D5F88800E16A20F440500843C5F8BA
:100E100088002088C00507D5D5F88800216B20F40C
:100E200040300843C5F8880020884FF000678004F0
:100E30004FF080684ED5D5F88800216C20F04060D6
:100E40000843C5F88800206CB8423BD1E86840F4FC
:100E50008010E8603EE0D5F8900010F4407014D0A7
:100E6000216D814211D0D5F89000D5F8901020F472
:100E7000407041F48031C5F89010D5F8901021F4FD
:100E80008031C5F89010C5F89000C00711D0FFF769
:100E90003FFE074641F2883907E000BFFFF738FE02
:100EA000C11B494501D9032668E7D5F890008007A2
:100EB000F4D5D5F89000216D20F440700843C5F8B2
:100EC00090005BE7404505D10121201D01F014F899
:100ED00000B106462068400317D5D5F88800616C3C
:100EE00020F040600843C5F88800606CB84204D127
:100EF000E86840F48010E86007E0404505D1012132
:100F0000201D00F0F9FF00B106462088400411D5ED
:100F1000D5F88800A16C20F040500843C5F888003F
:100F2000A06CB0F1805F05D10221201D00F0E4FF2C
:100F300000B106462088000406D555F8880FE16CFC
:100F400020F0804008432860304600F005B80000DB
:100F5000001002400070004018BCBDE8E08F0000A7
:100F60002DE9F0470F46050058D0404E306800F09C
:100F70000700B84209D2306820F0070038433060DB
:100F8000306800F00700B84248D12878384CC007D4
:100F90002CD06868032811D0022812D0216898B19B
:100FA000490500293ADAA16821F003010143A16053
:100FB000FFF7AEFD804641F2883910E021688901D3
:100FC000EFE721688903ECE78907EAE7FFF7A0FD6F
:100FD000A0EB0801494502D90320BDE8F087A068CD
:100FE000696800F00C00B0EB810FEFD12878800722
:100FF00005D5A068A96820F0F0000843A06030681B
:1010000000F00700B8420BD9306820F007003843E1
:101010003060306800F00700B84201D00120DCE702
:101020002878400705D5A068E96820F4E060084307
:10103000A0602878000706D5A068296920F46050D0
:1010400040EAC100A06000F03FF8A168094AC1F37E
:101050000311515C01F01F01C840074908600748AF
:101060000068BDE8F047FFF771BD000000200240B6
:1010700000100240903100080C0000200000002009
:101080000548064900688968054AC1F30221515C98
:1010900001F01F01C84070470C0000200010024002
:1010A000D03100080548064900688968054AC1F33F
:1010B000C221515C01F01F01C84070470C000020A4
:1010C00000100240D031000870B5254900231846B1
:1010D0008A68CC6812F00C0204F00306214C4FEA37
:1010E000640509D00C2A05D0042A32D0082A00D180
:1010F000284670BD012E10D10B681B0704D4D1F80F
:101100009430C3F3032302E00B68C3F30313164EBA
:1011100056F82330DAB10C2AEBD1C86800F003008E
:10112000022818D0032818D01846CA68CB68C2F322
:101130000212C3F306234343521CB3FBF2F2C86806
:10114000C0F34160401C4000B2FBF0F070BD184697
:1011500070BD204670BD2046E7E72846E5E7000061
:10116000001002400024F400A03100082DE9F843EB
:1011700004006FD0FE4DA86800F00C06E86800F08F
:1011800003072078C00664D576B10C2E01D1012F5B
:101190000AD0A069002828687AD040F001002860B1
:1011A000FFF7B6FC80465DE02868800702D5A0699D
:1011B0000028DED0216A2868000703D5286800F0DF
:1011C000F00004E0D5F89400F02202EA1010814209
:1011D00016D9084600F026FF00283BD1286840F0C9
:1011E000080028602868216A20F0F0000843286081
:1011F0006868E16920F47F4040EA0120686016E0F9
:10120000286840F0080028602868216A20F0F00073
:10121000084328606868E16920F47F4040EA0120C3
:10122000686026B9206A00F0FDFE0028D5D1FFF7DE
:101230004BFFA968CF4AC1F30311515C01F01F01B4
:10124000C840CD490860CD480068FFF77FFC002802
:101250007ED12EE0CAE000BFFFF75AFCA0EB0800E9
:10126000022876D828688007F6D5286840F008005C
:1012700028602868216A20F0F00008432860686828
:10128000E16920F47F4040EA0120686011E0FFE757
:1012900020F001002860FFF73BFC804606E000BF1D
:1012A000FFF736FCA0EB08000228DAD82868800790
:1012B000F6D42078C00740D0082E18D00C2E01D1CB
:1012C000032F14D06068B0F5803F17D0B0F5A02F81
:1012D000286817D020F480302860286820F4802007
:1012E00028606068E0B1FFF713FC804614E02868CE
:1012F000800322D56068002878D01EE0286840F47A
:101300008030EDE740F480202860F7E7FFF700FC2D
:10131000A0EB08006428A4D828688003F6D50CE068
:10132000FFF7F6FB804605E0FFF7F2FBA0EB0800B5
:10133000642896D828688003F6D4207880073BD5A7
:10134000042E11D00C2E01D1022F0DD0E06801E047
:10135000B6E1FFE0002828681ED040F480702860C5
:10136000FFF7D6FB07460CE0286840050CD5E0687F
:101370000028C1D008E000BFFFF7CAFBC01B02284D
:1013800093D828684005F7D56868217C20F0F8508C
:1013900040EA016068600FE020F480702860FFF789
:1013A000B7FB074605E000BFFFF7B2FBC01B0228F2
:1013B000B1D828684005F7D42078000729D560699E
:1013C0000028D5F8940012D040F00100C5F8940030
:1013D000FFF79EFB074604E0FFF79AFBC01B0228BD
:1013E00099D8D5F894008007F6D512E02BE120F0CB
:1013F0000100C5F89400FFF78BFB074605E000BF2E
:10140000FFF786FBC01B022885D8D5F8940080071B
:10141000F6D42078400766D5A86D0027C00008D410
:10142000A86D40F08050A865A86D012700F080509D
:10143000009053480168C90512D40168814641F4FF
:1014400080710160FFF764FB804605E0FFF760FBF9
:10145000A0EB080002287DD8D9F80000C005F5D51A
:10146000A068012816D00528D5F8900017D020F0E4
:101470000100C5F89000D5F8900020F0040000BFEE
:10148000C5F89000A06841F28839C0B1FFF740FB71
:1014900080460FE0D5F8900040F00100F0E740F002
:1014A0000400C5F89000F5E7FFF732FBA0EB080158
:1014B00049454FD8D5F890008007F5D50EE0FFF7E5
:1014C00027FB804606E000BFFFF722FBA0EB0801E8
:1014D00049453FD8D5F890008007F5D41FB1A86DD5
:1014E00020F08050A8652078800628D5606A002802
:1014F000D5F8980012D040F00100C5F89800FFF729
:1015000007FB074605E000BFFFF702FBC01B0228F0
:1015100020D8D5F898008007F6D510E020F001001B
:10152000C5F89800FFF7F4FA074604E0FFF7F0FA71
:10153000C01B02280ED8D5F898008007F6D4A06A00
:10154000A8B1022824D00C2E7DD0286820F080700D
:10155000286000E0B3E02868000103D4E86820F0C8
:101560000300E860E86807490840E8600CE09FE095
:1015700000100240903100080C0000200000002004
:1015800000700040FFFFEEFEFFF7C2FA044699E04C
:10159000E868E26A00F00301914226D1216B00F075
:1015A00070020901103991421FD1626B00F4FE41B3
:1015B000B1EB022F19D194F8382000F07841B1EB4B
:1015C000C26F12D1A18F00F4C00249084905A1F5EC
:1015D0000011914209D194F8401000F0C060490810
:1015E0004906A1F1007181424BD00C2E6FD02868C2
:1015F00040016CD4286820F080702860FFF788FADA
:10160000064604E0FFF784FA801B022857D82868B2
:101610008001F7D4F4E90B016FF00F0202EB011126
:101620000843218A5204490802EB4151A26841EA69
:1016300002210843217D4FF07E42490802EB4161BF
:101640000843217B00E042E040EAC160E968214AAA
:1016500011400843E860286840F080702860E8681E
:1016600040F08070E860FFF753FA044605E000BFE1
:10167000FFF74EFA001B022821D828688001F7D511
:1016800023E02868800120D4286840F0807028601A
:10169000E86840F08070E860FFF73AFA044604E03A
:1016A000FFF736FA001B022809D828688001F7D511
:1016B0000BE000BFFFF72CFA001B022802D9032021
:1016C000BDE8F88328688001F4D40020F8E7012001
:1016D000F6E700008C809D0110B5401EB0F1807FC0
:1016E00001D3012010BD4FF0E02460610F2160178D
:1016F00001F09AF80020A06107202061002010BDB1
:10170000704770472DE9F04102680446D0691168BE
:10171000936840F60F0528424FF0000505D1860674
:101720007BD58E0679D5216E88E003F0010601F4A1
:101730009077374371D0C70707D0CF0505D501276C
:101740001762E26F42F00102E267820708D5DA070A
:1017500006D0276802223A62E26F42F00402E26792
:10176000420708D5DA0706D0236804221A62E26F1E
:1017700042F00202E26702070AD501F0200232437A
:1017800006D0236808221A62E26F42F00802E2677C
:10179000020509D54A0107D523684FF400621A6291
:1017A000E26F42F02002E267E26F002A2ED080064C
:1017B00005D5880603D5216E09B120468847E06F1C
:1017C00021688968490602D410F0280F20D02046ED
:1017D00000F09CFE20688168490614D5816821F0DC
:1017E00040018160E06E70B11D498163E06EFFF7DA
:1017F0007AF800280AD0E06E816B00E02046BDE850
:10180000F041084709E02046FFF77BFFBDE8F08183
:101810002046FFF776FFE567F8E7C60209D55B02C9
:1018200007D54FF4801010622046BDE8F041FFF765
:1018300067BF030605D50B0603D5616E0029DDD110
:10184000E4E74006E2D54806E0D51168204621F0DD
:101850004001116020216167656600F092F8D5E7CC
:10186000F924000810B5040002D0606F10B107E041
:10187000012010BD002084F87000204600F025F8FB
:10188000242060672068016821F001010160204682
:1018900000F04CFE0128ECD0606A10B1204600F048
:1018A0009BFD2068416821F4904141602068816877
:1018B00021F02A0181602068016841F00101016086
:1018C0002046BDE8104000F0EBBD70472DE9F8431D
:1018D0000446406F1F4616460D4620284FD1CDB115
:1018E000C6B194F87000012849D0012084F8700036
:1018F0004FF00008C4F87C8021206067FFF708F9EA
:10190000A4F850608146A4F85260A068B0F5805FEA
:1019100003D004E00120BDE8F883206928B12E46F9
:101920005FF0000584F8708010E00026FAE780215F
:10193000204600F00FFFB8B9C6B116F8010B2168B8
:101940000885B4F85200401EA4F85200B4F85200C2
:101950004B464FF0000200970028E8D14FF04001BD
:10196000204600F0F7FE30B10320D4E735F8020B33
:10197000C0F30800E3E7202060670020CBE70220E7
:10198000C9E77047FEE710B54FF0904400220821E8
:101990002046FFF7B7F8002210212046FFF7B2F8E3
:1019A000022001F0ECFB012208212046FFF7AAF8F3
:1019B000022001F0E4FB002208212046FFF7A2F8F4
:1019C000022001F0DCFB012210212046FFF79AF8EB
:1019D000BDE81040022001F0D2BB10B5044600F073
:1019E000AEF86006000E00F07DF800F0ECF804465A
:1019F00000F0C7F8204610BDF0B587B01421684646
:101A0000FEF71BFC1348C16C41F00101C164C16CBD
:101A100001F001010591C16C41F00101C164C06C8C
:101A2000112400F0010005900820012503268DE80F
:101A300071004FF0904769463846FEF78DFF102041
:101A40008DE8710069463846FEF786FF00F099F888
:101A500007B0F0BD0010024010B54FF090440022D6
:101A600008212046FFF74EF8012210212046FFF7FB
:101A700049F8022001F083FB012208212046FFF7EC
:101A800041F8022001F07BFB002208212046FFF7ED
:101A900039F8BDE81040022001F071BB70B5002498
:101AA00025464FF09046002208213046FFF72AF8DD
:101AB000022001F064FB012208213046FFF722F8E2
:101AC0006006040E10213046FFF717F808B1641CB9
:101AD000E4B2022001F053FB6D1CEDB2082DE2D3FD
:101AE000204670BD70B505464FF090460022082193
:101AF0003046FFF707F80024280601D5012200E050
:101B0000002210213046FEF7FDFF6806050E022078
:101B100001F035FB012208213046FEF7F3FF0220D9
:101B200001F02DFB002208213046FEF7EBFF0220DA
:101B300001F025FB641CE4B2082CDDD370BD10B5A8
:101B40004FF09044012208212046FEF7DBFF0122DE
:101B500010212046FEF7D6FF022001F010FB0022E4
:101B600010212046FEF7CEFF022001F008FB0022E4
:101B700008212046FEF7C6FFBDE81040022001F014
:101B8000FEBA10B54FF09044002208212046FEF71F
:101B9000B9FF002210212046FEF7B4FF022001F019
:101BA000EEFA012208212046FEF7ACFF022001F0E8
:101BB000E6FA012210212046FEF7A4FFBDE81040FE
:101BC000022001F0DCBA70B54FF0904500240122EC
:101BD00010212846FEF796FF022001F0D0FA0122DC
:101BE00008212846FEF78EFF022001F0C8FA05E022
:101BF000641CE4B2FA2C01D9012070BD10212846E2
:101C0000FEF77BFF0028F3D1002208212846FEF7CB
:101C100079FF022001F0B3FA002070BD10B54FF03B
:101C20009044002220212046FEF76CFF0022402134
:101C30002046FEF767FF022001F0A1FA01222021D1
:101C40002046FEF75FFF022001F099FA00222021D2
:101C50002046FEF757FF022001F091FA01224021B1
:101C60002046FEF74FFFBDE81040022001F087BA82
:101C7000F0B587B014216846FEF7DFFA1348C16C4F
:101C800041F00101C164C16C01F001010591C16C19
:101C900041F00101C164C06C112400F00100059005
:101CA0002020012503268DE871004FF090476946FA
:101CB0003846FEF751FE40208DE8710069463846EF
:101CC000FEF74AFE00F099F807B0F0BD00100240A0
:101CD00010B54FF09044002220212046FEF712FF5D
:101CE000012240212046FEF70DFF022001F047FAB5
:101CF000012220212046FEF705FF022001F03FFAD5
:101D0000002220212046FEF7FDFEBDE81040022003
:101D100001F035BA70B5002425464FF090460022F8
:101D200020213046FEF7EEFE022001F028FA0122C3
:101D300020213046FEF7E6FE6006040E40213046C4
:101D4000FEF7DBFE08B1641CE4B2022001F017FAD2
:101D50006D1CEDB2082DE2D3204670BD70B505466E
:101D60004FF09046002220213046FEF7CBFE0024A3
:101D7000280601D5012200E0002240213046FEF76E
:101D8000C1FE6806050E022001F0F9F901222021AA
:101D90003046FEF7B7FE022001F0F1F900222021C3
:101DA0003046FEF7AFFE022001F0E9F9641CE4B210
:101DB000082CDDD370BD10B54FF0904401222021D6
:101DC0002046FEF79FFE012240212046FEF79AFEA4
:101DD000022001F0D4F9002240212046FEF792FEB5
:101DE000022001F0CCF9002220212046FEF78AFED5
:101DF000BDE81040022001F0C2B910B54FF0904488
:101E0000002220212046FEF77DFE002240212046B0
:101E1000FEF778FE022001F0B2F9012220212046CF
:101E2000FEF770FE022001F0AAF9012240212046AF
:101E3000FEF768FEBDE81040022001F0A0B970B5C1
:101E40004FF090450024012240212846FEF75AFE1B
:101E5000022001F094F9012220212846FEF752FECB
:101E6000022001F08CF905E0641CE4B2FA2C01D9DF
:101E7000012070BD40212846FEF73FFE0028F3D127
:101E8000002220212846FEF73DFE022001F077F9CE
:101E9000002070BD10B586B014216846FEF7CDF95C
:101EA0000D48C16C41F00201C164C06C0B4C00F0E4
:101EB000020005900820009001200190002002906F
:101EC000039069462046FEF747FD00220821204680
:101ED000FEF718FE06B010BD0010024000040048D6
:101EE000012208210148FEF70DBE00000004004851
:101EF000FEE77047704700002DE9F041444C05466D
:101F00008846E0680026810728680DD0E16801F066
:101F10000301814216D1A8B1E0686968C0F30210DC
:101F2000401C88420ED120E0012804D0022805D0B0
:101F3000032807D108E02168890701E021684905E5
:101F4000002907DB01265FE02168890302D42168AC
:101F50004903F5E7E1686A686FF00F0321F0730148
:101F600003EB021211430143E160206820F080601E
:101F70002060FEF7CDFD074605E000BFFEF7C8FD77
:101F8000C01B022837D820680001F7D4B8F1000F31
:101F900018D0B8F1010F1DD0287D4FF07E414008C8
:101FA00001EB4060A96840EA01202169194A11400B
:101FB00008432061206840F080602060FEF7A8FDA3
:101FC00007461AE0A868297B000240EAC16021693F
:101FD000114AECE7288A1149400801EB4050A968F2
:101FE00040EA012021690E4AE1E700BFFEF790FDBB
:101FF000C01B022801D9032606E020680001F5D5A0
:102000002069A969084320613046BDE8F0810000DD
:1020100000100240FF80FFF9FF80FF070000E0FF93
:10202000FF809FFFF8B51C4D06460024A86DC00038
:1020300002D5FEF737FE0DE0A86D40F08050A86590
:10204000A86D00F080500090FEF72CFEA96D21F0E5
:102050008051A965B0F5007F04D0802E07D94FF0DC
:1020600003040AE0802E08D9A02E01D804E001D193
:10207000022402E0702E00D101240848016821F0FA
:10208000070121430160006800F00700A04201D071
:102090000120F8BD0020F8BD0010024000200240E1
:1020A000F0B52DED028B83B0FFF749FD8820FFF7D7
:1020B00019FDFFF788FD2C20FFF714FDFFF783FDC6
:1020C0000620FFF70FFDFFF77EFDFFF75AFD1420F6
:1020D000FEF730FCFFF733FD8920FFF703FDFFF724
:1020E00072FDFFF7DBFC0746FFF74DFCFFF7D6FC60
:1020F0000646FFF748FCFFF7D1FCFFF744FCFFF76B
:10210000CDFC0546FFF73FFCFFF7C8FC0446FFF790
:102110003AFCFFF7C3FCFFF79FFCFFF732FD46EAEE
:10212000072044EA0524FEF7B7F99FED1C1B53EC8A
:10213000112BFEF73CF99FED1B8B53EC182BFEF790
:1021400036F99FED1A1B53EC112BFEF722F9FEF71F
:10215000C3F905462046FEF79FF99FED161B53EC89
:10216000112BFEF724F953EC182BFEF720F9FEF79C
:10217000B3F9FEF79EF906460F462846FEF799F991
:1021800041EC100B0DA053EC102BCDE9006700F0D3
:102190003BFB03B0BDEC028BF0BD00000000000073
:1021A00000E06540000000000000F03E000000007C
:1021B000008046400000000000005940534854335E
:1021C000305F413A202566202C202566200D0A002C
:1021D000F0B52DED028B83B0FFF7EDFD8820FFF702
:1021E000BDFDFFF72CFE2C20FFF7B8FDFFF727FE03
:1021F0000620FFF7B3FDFFF722FEFFF7FEFD1420D8
:10220000FEF798FBFFF7D7FD8920FFF7A7FDFFF743
:1022100016FEFFF77FFD0746FFF700FDFFF77AFD8B
:102220000646FFF7FBFCFFF775FDFFF7F7FCFFF72E
:1022300071FD0546FFF7F2FCFFF76CFD0446FFF762
:10224000EDFCFFF767FDFFF743FDFFF7D6FD46EA1C
:10225000072044EA0524FEF71FF99FED1C1B53ECF1
:10226000112BFEF7A4F89FED1B8B53EC182BFEF7F8
:102270009EF89FED1A1B53EC112BFEF78AF8FEF720
:102280002BF905462046FEF707F99FED161B53EC88
:10229000112BFEF78CF853EC182BFEF788F8FEF79D
:1022A0001BF9FEF706F906460F462846FEF701F928
:1022B00041EC100B0DA053EC102BCDE9006700F0A2
:1022C000A3FA03B0BDEC028BF0BD000000000000DB
:1022D00000E06540000000000000F03E000000004B
:1022E000008046400000000000005940534854332D
:1022F000305F423A202566202C202566200D0A00FA
:102300007047FEF70BBC000030B5ABB04421684607
:10231000FDF793FF142126A8FDF78FFF542111A884
:10232000FDF78BFFFEF7C6FC194850F8901F21F00F
:102330001801016014200090012000240290CDE9D2
:1023400006040225CDE90A5060210C900891102066
:102350000D900720CDE90E0568461095FEF706FFA3
:102360000F2026900320CDE927042994012126A8D7
:102370002A94FEF7F5FD11A811951A94FEF7AAFC10
:102380002802FEF75BFCFEF79DFC2BB030BD000081
:10239000001002400D48016841F4700101600C48D2
:1023A000016841F001010160002181600268094B70
:1023B0001A4002608214C260026822F48022026025
:1023C00081610249C00380390860704788ED00E0F0
:1023D00000100240FFFFF6EA90F82410C90706D06B
:1023E00001684A68836A22F400321A434A6090F80E
:1023F0002410890706D501684A68C36A22F480322E
:102400001A434A6090F82410490706D501684A68C3
:10241000036B22F480221A434A6090F824100907C3
:1024200006D501684A68436B22F400421A434A60A9
:1024300090F82410C90606D501688A68836B22F4D7
:1024400080521A438A6090F82410890606D50168E4
:102450008A68C36B22F400521A438A6090F82410F1
:10246000490611D501684A68036C22F480121A43A8
:102470004A60016CB1F5801F06D101684A68436C5F
:1024800022F4C0021A434A6090F82410090606D5C7
:1024900001684A68806C22F4002202434A60704757
:1024A000F8B500260446C667FEF732FB05462068ED
:1024B00000686FF07E47000708D52B4600224FF4D6
:1024C00000112046009700F045F960B920680068C7
:1024D00040070AD52B4600224FF480012046009782
:1024E00000F038F908B10320F8BD20206067A0672C
:1024F00084F870600020F8BD10B5806A0021A0F853
:102500005A10A0F85210FFF7FCF810BD01680A68D5
:1025100022F490720A6001688A6822F001028A60DF
:102520002021816700210166704700002DE9F041FC
:10253000044600682369A268E5691A4363690027B5
:102540002B431A437A4903687A4D2B4013430360A7
:1025500020684268E36822F440521A4342602268CD
:10256000A0698A4201D0236A1843936823F4306338
:1025700003439360704B226870489A420DD1D0F8A3
:10258000880010F0030006D0012838D0022834D08B
:10259000032821D135E001251FE0694B9A420BD178
:1025A000D0F8880010F00C0025D0042827D0082887
:1025B00023D00C2810D124E08A420DD1D0F8880015
:1025C00010F4406017D0B0F5806F18D0B0F5006FF0
:1025D00013D0B0F5406F14D010255A4B00264FF49D
:1025E00000408A4245D175B1022D0FD0042D0FD085
:1025F000082D18D10FE00025EFE70225EDE70425AF
:10260000EBE70825E9E7FEF73BFD03E0184602E0AB
:10261000FEF75AFDA8B3626802EB4201814202D87C
:10262000B0EB023F01D901276FE0DFF81C815DB1FB
:10263000022D0CD0042D13D0082DF4D150082905FB
:10264000401846F1000105E0FEF71AFD0AE05008C7
:102650003E49F5E70023FDF7B5FDA0F5407150E0D8
:10266000FEF732FD6268010E03025008181871412E
:10267000F0E7E1694FF6EF7881422FD1092DD2D2F0
:1026800000E042E0DFE805F0060920052305050526
:102690002600C8E7FEF7F4FC01E0FEF703FD410069
:1026A000D4F8040001EB5001B1FBF0F080B2A0F1CE
:1026B00010014145B7D84FF6F0710140C0F3420018
:1026C00001432068C16020E021496068EAE7FEF725
:1026D000FBFCE4E74FF480316068E3E7092DA2D208
:1026E000DFE805F0060918051E05050520009AE734
:1026F000FEF7C6FC16E0FEF7D5FC13E080B2A0F1B1
:10270000100141458FD82168C86026663846666644
:10271000BDE8F081606803EB5001B1FBF0F0EDE73C
:10272000FEF7D2FC616800EB5100B0FBF1F0E5E789
:1027300000800040F369FFEF0038014000100240C4
:10274000004400400024F400FFFC0F00000024F4CB
:102750000048E8012DE9F0479A4617460E46044620
:102760004FF000094FF02008089D39E0681C37D071
:10277000FEF7CEF9A0EB0A00A84222D80DB32068DC
:10278000016849072CD5C069C043000528D42168D9
:102790004FF4006008622068016821F4D071016084
:1027A0002068816821F001018160C4F87480C4F858
:1027B0007880C4F87C8000BF84F870900320BDE866
:1027C000F0872068016821F4D07101602068816879
:1027D00021F001018160C4F87480C4F87880EBE7CF
:1027E0002068C06936EA000004D00020B842BDD09D
:1027F0000020E4E70120F9E70148FEF783BF00006D
:1028000014000020FEE700000FB4054B10B503A92B
:10281000044A029800F0EEF810BC5DF814FB0000CA
:1028200029310008100000200907090E002804DBE8
:1028300000F1E02080F80014704700F00F0000F174
:10284000E02080F8141D704702E008C8121F08C17C
:10285000002AFAD170477047002001E001C1121F21
:10286000002AFBD1704700002DE9FF5F82B00021F4
:10287000DDE90430020DDDF840B0034318D044F622
:102880001050A2F2FF3242431514119801281FD0B4
:10289000A5EB0B00401C5FEA000A4FF000064E4F0C
:1028A000DFF83891B046504615D5CAF1000413E060
:1028B000119801244AA3012801D16FEA0B01029863
:1028C000119AC0E90031C0E9024206B000F08EB8AA
:1028D000CBF10000DFE704460021404A491842EBF3
:1028E0000450CDE9001012E0E00707D032463B4625
:1028F00040464946FDF75BFD8046894632463B46E9
:1029000010461946FDF753FD06460F466410002C8D
:10291000EAD1DDE90401DDE90023BAF1000F06DAAE
:10292000FDF745FD42464B46FDF741FD05E0FDF74D
:10293000CAFE42464B46FDF7C6FE04460E4600223E
:10294000284BFDF747FF03D84FF0FF30014607E063
:102950000022254B20463146FDF77AFCFDF722FF89
:10296000102409E0002C0ADB0A220023FDF72AFCD0
:10297000039B30321A55641E50EA0102F2D1641CE6
:10298000039AC4F111031444119A012A03D00122BD
:1029900008430DD10AE0084304D000204FF0110B8A
:1029A000119072E7A3EB0B056D1E0DE05B4504DD96
:1029B0004FF0000205F1010504E003DA4FF00002D8
:1029C000A5F10105002AECD002981199C0E9023165
:1029D000C0E9004579E70000000014400000F03F26
:1029E000300000000000F0430000E03F30BCBDE8D4
:1029F000C09F00002DE9FF4F95B09B4689460646D3
:102A000000250FE2252877D100242746F84A012126
:102A1000059400E0044316F8013F203B01FA03F05F
:102A20001042F7D130782A2811D06FF02F03307878
:102A3000A0F13002092A16D8059A44F0020402EBEC
:102A4000820203EB42021044761C0590EFE759F82E
:102A5000042B0592002A03DA504244F400540590F6
:102A600044F00204761C30782E2816D116F8010F97
:102A700044F004042A280DD06FF02F023078A0F122
:102A80003003092B09D807EB870302EB4303C71870
:102A9000761CF3E759F8047B761C30786C280FD04D
:102AA00006DC4C2817D068280DD06A2814D104E021
:102AB000742810D07A280FD10DE044F400140AE0F5
:102AC00044F4801401E044F440147278824202D14C
:102AD00004F58014761C761C307866280BD013DC45
:102AE000582877D009DC002875D04528F6D046282C
:102AF000F4D047281AD19DE118E0632835D0642826
:102B000079D0652812D195E1702873D008DC672848
:102B1000F1D069286FD06E280DD06F2806D1B5E0AE
:102B200073282CD0752875D0782874D05A461799F8
:102B300090476D1C75E1C4F30250022809D00328A8
:102B40000DD0D9F8001004280DD00D6009F104094A
:102B500067E1D9F80010EA17C1E90052F6E7D9F8A1
:102B600000100D80F2E70D70F0E719F8041B8DF8E6
:102B7000001000208DF80100EA46012003E059F81A
:102B800004AB4FF0FF3061074FF0000102D40DE0BD
:102B900008F101018846B9420FDA8045F8DB1AF8DE
:102BA00008100029F4D108E008F1010188468142AB
:102BB000FADB1AF808100029F6D105985B46A0EB5D
:102BC000080721463846179A00F097FA284400EB88
:102BD000080507E04DE029E10DE01AF8010B5A461F
:102BE00017999047B8F10108F7D25B46214638465D
:102BF000179A13E142E00A220092C4F302524FF006
:102C0000000A022A08D059F804CB032A4FEAEC71D3
:102C10000AD00DE029E02AE009F1070121F00702BE
:102C2000F2E802C1914609E00FFA8CFC4FEAEC7120
:102C3000042A03D14FFA8CFC4FEAEC71002907DA21
:102C40000A460021DCF1000C61EB02012D2202E0BA
:102C5000220504D52B228DF80420012203E0E2078F
:102C600001D02022F7E7904659E00A2102E0102225
:102C70000DE010214FF0000A00910BE010224FF000
:102C8000000A44F004040827009203E008224FF0F1
:102C9000000A0092C4F30252022A05D059F804CB6C
:102CA0000021032A08D009E009F1070121F00702F9
:102CB000F2E802C1914605E01FFA8CFC042A01D11A
:102CC0000CF0FF0C4FF00008220728D5702806D022
:102CD000009B83F0100353EA0A0305D00EE0402264
:102CE0008DF80420012208E05CEA010206D03022BF
:102CF0008DF804208DF8050002229046009B83F099
:102D0000080353EA0A030AD15CEA010201D162070F
:102D100005D530228DF804204FF001087F1E582879
:102D200004D034A003900EA802900DE036A0F9E77D
:102D300053466046009AFDF745FA84460398825C44
:102D40000298401E029002705CEA0100F0D10298E5
:102D500006A9081A00F1200A600702D524F480347D
:102D600000E00127574502DDA7EB0A0000E0002044
:102D700000EB0A01009005984144401A0590E003D9
:102D800006D45B462146179A059800F0B6F905442B
:102D9000002706E001A85A46C05D179990476D1CB0
:102DA0007F1C4745F6DBE0030CD55B462146179AAE
:102DB000059800F0A2F9054404E030205A4617991E
:102DC00090476D1C0099481E00900029F5DC08E032
:102DD000029802995A460078491C02911799904727
:102DE0006D1CBAF10001AAF1010AF1DC65E10000F5
:102DF00009280100303132333435363738396162D1
:102E00006364656600000000303132333435363794
:102E100038394142434445460000000000F05BF968
:102E20000544761C307800287FF4ECAD19B02846B4
:102E300000F04EB9620700D4062709F1070222F01C
:102E4000070CFCE80223E14603F000485FEA080CA7
:102E500002D00FF2702C0DE05FEA045C02D50FF295
:102E6000682C07E05FEAC47C02D00FF2602C01E01E
:102E7000AFF2700C4FF0FF3823F00043CDF850C094
:102E800065280CD006DC452809D046281DD04728E7
:102E90003DD13DE0662818D067287ED138E000217A
:102EA000112F01DB112000E0781CCDE9000106A9FB
:102EB0000EA8FFF7D9FCDDE90F010E9A039100215E
:102EC000009207F1010A04914DE04FF00040009795
:102ED000CDE9011006A90EA8FFF7C6FCDDE90F0237
:102EE00003920E9B11990022DDF80CA0009304922E
:102EF00011B9791C00EB010AB7EB0A0004D4C0F148
:102F0000FF3007F1010A0490AAEB0700019044E0AA
:102F1000012F00DA01270021112F01DD112000E02F
:102F20003846CDE9000106A90EA8FFF79DFCDDE9B2
:102F30000F010E9A0391002104910092BA462107D5
:102F40000CD40399514500DA8A46BAF1010F05DD28
:102F5000009AAAF10101515C302908D0B84202DA86
:102F600010F1040F06DA0121CDE9011015E0AAF1F4
:102F70000101E9E7002805DC049901440491AAEB6A
:102F8000000102E0411C514500DD8A460499401AC7
:102F9000401C01904FF000400290200704D401989B
:102FA000504501DBCDF8048000208DF84F000298D9
:102FB0000DF14F07B0F1004F25D02B200E90029855
:102FC0004FF0020800280CDA404202902D200E90AB
:102FD00007E00A210298FDF79BFA3031029007F8CA
:102FE000011DB8F10001A8F10108F2DC02980028E7
:102FF000EFD1791E0E980870307800F0200040F074
:10300000450007F8020D12A8C01B00F1070814982C
:10301000007800B1012000EB0A01019801EBE0719A
:1030200005984144401A401E0590E00306D45B46D3
:103030002146179A059800F060F805441498007826
:1030400018B15A46179990476D1CE00324D55B468A
:103050002146179A059800F050F805441CE00498A2
:10306000002807DBDDE90301884203DD0098405CAE
:10307000179901E0179930205A469047049805F1B6
:103080000105401C04900198401E019004D12E209F
:103090005A46179990476D1CBAF10001AAF1010A2E
:1030A000DDDC05E017F8010B5A46179990476D1CB7
:1030B000B8F10001A8F10108F4DC5B462146179A3B
:1030C0000598ABE62D0000002B000000200000005A
:1030D00030BCBDE8C08F2DE9F041044600251E46F6
:1030E0001746880404D405E039462020B0476D1CFB
:1030F000641EF9D52846BDE8F0812DE9F04104466B
:1031000000251E469046C80301D5302700E0202741
:10311000880404D505E041463846B0476D1C641E5E
:10312000F9D52846BDE8F08113B54FF6FF730122AB
:1031300069460248FEF7CAFB00981CBD1400002037
:10314000FDF7F4FCFFF7E0F8FEF7A4FEFDF76EFBD9
:10315000FEF752FCFEF78CFD4420FEF73EFC08B95A
:10316000FEF7BEFE4FF47A74FEF79AFF2046FDF795
:10317000E1FBFFF72DF82046FDF7DCFBF4E704E068
:103180000621491E0904090CFBD1401EF8D27047E4
:103190000000000000000000010203040607080907
:1031A000A0860100400D0300801A060000350C00C7
:1031B00040420F0080841E0000093D0000127A008A
:1031C0000024F40000366E010048E801006CDC02C7
:1031D0000000000001020304F83100080000002094
:1031E00014000000482800080C32000814000020D9
:1031F00084040000582800081000000001000000AE
:0C3200000000000000093D00000000007C
:040000050800018D61
:00000001FF
